{
  "contractName": "ChainPrediction",
  "abi": [
    {
      "inputs": [
        {
          "internalType": "address",
          "name": "_oracle",
          "type": "address"
        }
      ],
      "stateMutability": "nonpayable",
      "type": "constructor"
    },
    {
      "stateMutability": "payable",
      "type": "fallback",
      "payable": true
    },
    {
      "inputs": [
        {
          "internalType": "uint256",
          "name": "",
          "type": "uint256"
        }
      ],
      "name": "bets",
      "outputs": [
        {
          "internalType": "uint256",
          "name": "",
          "type": "uint256"
        }
      ],
      "stateMutability": "view",
      "type": "function",
      "constant": true
    },
    {
      "inputs": [
        {
          "internalType": "address",
          "name": "",
          "type": "address"
        },
        {
          "internalType": "uint256",
          "name": "",
          "type": "uint256"
        }
      ],
      "name": "betsPerVoter",
      "outputs": [
        {
          "internalType": "uint256",
          "name": "",
          "type": "uint256"
        }
      ],
      "stateMutability": "view",
      "type": "function",
      "constant": true
    },
    {
      "inputs": [
        {
          "internalType": "address",
          "name": "",
          "type": "address"
        }
      ],
      "name": "isVoted",
      "outputs": [
        {
          "internalType": "bool",
          "name": "",
          "type": "bool"
        }
      ],
      "stateMutability": "view",
      "type": "function",
      "constant": true
    },
    {
      "inputs": [],
      "name": "losersBets",
      "outputs": [
        {
          "internalType": "uint256",
          "name": "",
          "type": "uint256"
        }
      ],
      "stateMutability": "view",
      "type": "function",
      "constant": true
    },
    {
      "inputs": [],
      "name": "oracle",
      "outputs": [
        {
          "internalType": "address",
          "name": "",
          "type": "address"
        }
      ],
      "stateMutability": "view",
      "type": "function",
      "constant": true
    },
    {
      "inputs": [],
      "name": "pollEnded",
      "outputs": [
        {
          "internalType": "bool",
          "name": "",
          "type": "bool"
        }
      ],
      "stateMutability": "view",
      "type": "function",
      "constant": true
    },
    {
      "inputs": [
        {
          "internalType": "uint256",
          "name": "",
          "type": "uint256"
        }
      ],
      "name": "votesPerChain",
      "outputs": [
        {
          "internalType": "uint256",
          "name": "",
          "type": "uint256"
        }
      ],
      "stateMutability": "view",
      "type": "function",
      "constant": true
    },
    {
      "inputs": [
        {
          "internalType": "uint256",
          "name": "",
          "type": "uint256"
        }
      ],
      "name": "winners",
      "outputs": [
        {
          "internalType": "uint256",
          "name": "",
          "type": "uint256"
        }
      ],
      "stateMutability": "view",
      "type": "function",
      "constant": true
    },
    {
      "stateMutability": "payable",
      "type": "receive",
      "payable": true
    },
    {
      "inputs": [
        {
          "internalType": "enum ChainPrediction.Chains",
          "name": "_chain",
          "type": "uint8"
        }
      ],
      "name": "placePrediction",
      "outputs": [],
      "stateMutability": "payable",
      "type": "function",
      "payable": true
    },
    {
      "inputs": [],
      "name": "withdrawGain",
      "outputs": [],
      "stateMutability": "nonpayable",
      "type": "function"
    },
    {
      "inputs": [],
      "name": "reportResults",
      "outputs": [],
      "stateMutability": "nonpayable",
      "type": "function"
    }
  ],
  "bytecode": "0x6080604052600660025534801561001557600080fd5b50604051610d4f380380610d4f8339818101604052602081101561003857600080fd5b8101908080519060200190929190505050806000806101000a81548173ffffffffffffffffffffffffffffffffffffffff021916908373ffffffffffffffffffffffffffffffffffffffff16021790555050610cb6806100996000396000f3fe6080604052600436106100a05760003560e01c8063a2fb117511610064578063a2fb1175146101b6578063a57296c814610205578063b2bb47f214610274578063bd33eb62146102a1578063c1c62260146102cc578063cbff75cb146102fd576100a7565b806322af00fa146100a95780632b539c86146100f857806339521c881461010f5780635caf69c1146101265780637dc0d1d014610175576100a7565b366100a757005b005b3480156100b557600080fd5b506100e2600480360360208110156100cc57600080fd5b8101908080359060200190929190505050610364565b6040518082815260200191505060405180910390f35b34801561010457600080fd5b5061010d61037c565b005b34801561011b57600080fd5b50610124610506565b005b34801561013257600080fd5b5061015f6004803603602081101561014957600080fd5b8101908080359060200190929190505050610675565b6040518082815260200191505060405180910390f35b34801561018157600080fd5b5061018a61068d565b604051808273ffffffffffffffffffffffffffffffffffffffff16815260200191505060405180910390f35b3480156101c257600080fd5b506101ef600480360360208110156101d957600080fd5b81019080803590602001909291905050506106b1565b6040518082815260200191505060405180910390f35b34801561021157600080fd5b5061025e6004803603604081101561022857600080fd5b81019080803573ffffffffffffffffffffffffffffffffffffffff169060200190929190803590602001909291905050506106d2565b6040518082815260200191505060405180910390f35b34801561028057600080fd5b506102896106f7565b60405180821515815260200191505060405180910390f35b3480156102ad57600080fd5b506102b661070a565b6040518082815260200191505060405180910390f35b6102fb600480360360208110156102e257600080fd5b81019080803560ff169060200190929190505050610710565b005b34801561030957600080fd5b5061034c6004803603602081101561032057600080fd5b81019080803573ffffffffffffffffffffffffffffffffffffffff16906020019092919050505061096d565b60405180821515815260200191505060405180910390f35b60046020528060005260406000206000915090505481565b60011515600060149054906101000a900460ff16151514610405576040517f08c379a00000000000000000000000000000000000000000000000000000000081526004018080602001828103825260158152602001807f506f6c6c206973207374696c6c2072756e6e696e67000000000000000000000081525060200191505060405180910390fd5b600061040f61098d565b905060008111610487576040517f08c379a00000000000000000000000000000000000000000000000000000000081526004018080602001828103825260178152602001807f596f7520646964206e6f742077696e207468652062657400000000000000000081525060200191505060405180910390fd5b6000610491610a25565b9050600061049d610a80565b9050600082848302816104ac57fe5b04840190506104b9610b34565b3373ffffffffffffffffffffffffffffffffffffffff166108fc829081150290604051600060405180830381858888f193505050501580156104ff573d6000803e3d6000fd5b5050505050565b3373ffffffffffffffffffffffffffffffffffffffff1660008054906101000a900473ffffffffffffffffffffffffffffffffffffffff1673ffffffffffffffffffffffffffffffffffffffff16146105c7576040517f08c379a000000000000000000000000000000000000000000000000000000000815260040180806020018281038252600d8152602001807f4e6f7420616e206f7261636c650000000000000000000000000000000000000081525060200191505060405180910390fd5b60001515600060149054906101000a900460ff16151514610650576040517f08c379a000000000000000000000000000000000000000000000000000000000815260040180806020018281038252600a8152602001807f506f6c6c20456e6465640000000000000000000000000000000000000000000081525060200191505060405180910390fd5b610658610ba7565b6001600060146101000a81548160ff021916908315150217905550565b60066020528060005260406000206000915090505481565b60008054906101000a900473ffffffffffffffffffffffffffffffffffffffff1681565b600181815481106106be57fe5b906000526020600020016000915090505481565b6005602052816000526040600020602052806000526040600020600091509150505481565b600060149054906101000a900460ff1681565b60035481565b60001515600060149054906101000a900460ff16151514610799576040517f08c379a000000000000000000000000000000000000000000000000000000000815260040180806020018281038252600a8152602001807f506f6c6c20456e6465640000000000000000000000000000000000000000000081525060200191505060405180910390fd5b60008160058111156107a757fe5b905060001515600760003373ffffffffffffffffffffffffffffffffffffffff1673ffffffffffffffffffffffffffffffffffffffff16815260200190815260200160002060009054906101000a900460ff1615151461086f576040517f08c379a00000000000000000000000000000000000000000000000000000000081526004018080602001828103825260168152602001807f416c7265616479206361737420796f757220766f74650000000000000000000081525060200191505060405180910390fd5b6001600760003373ffffffffffffffffffffffffffffffffffffffff1673ffffffffffffffffffffffffffffffffffffffff16815260200190815260200160002060006101000a81548160ff02191690831515021790555034600460008381526020019081526020016000206000828254019250508190555034600560003373ffffffffffffffffffffffffffffffffffffffff1673ffffffffffffffffffffffffffffffffffffffff16815260200190815260200160002060008381526020019081526020016000206000828254019250508190555060066000828152602001908152602001600020600081548092919060010191905055505050565b60076020528060005260406000206000915054906101000a900460ff1681565b6000806000905060005b600180549050811015610a1d57600560003373ffffffffffffffffffffffffffffffffffffffff1673ffffffffffffffffffffffffffffffffffffffff1681526020019081526020016000206000600183815481106109f257fe5b9060005260206000200154815260200190815260200160002054820191508080600101915050610997565b508091505090565b6000806000905060005b600180549050811015610a78576004600060018381548110610a4d57fe5b9060005260206000200154815260200190815260200160002054820191508080600101915050610a2f565b508091505090565b6000806003541115610a96576003549050610b31565b60008060005b600254811015610b235760005b600180549050811015610aeb5760018181548110610ac357fe5b9060005260206000200154821415610ade5760019250610aeb565b8080600101915050610aa9565b50600015158215151415610b12576004600082815260200190815260200160002054830192505b600091508080600101915050610a9c565b508160038190555081925050505b90565b60005b600254811015610ba4576000600560003373ffffffffffffffffffffffffffffffffffffffff1673ffffffffffffffffffffffffffffffffffffffff1681526020019081526020016000206000838152602001908152602001600020819055508080600101915050610b37565b50565b60008080600090505b600254811015610c52578260066000838152602001908152602001600020541115610bf35760066000828152602001908152602001600020549250809150610c45565b826006600083815260200190815260200160002054148015610c155750600083115b15610c445760018190806001815401808255809150506001900390600052602060002001600090919091909150555b5b8080600101915050610bb0565b506001819080600181540180825580915050600190039060005260206000200160009091909190915055505056fea26469706673582212206fcb18554078aa535e3872df35902e98c6ccd8cba64c7c92fa6f26894a3f8a3464736f6c63430007030033",
  "immutableReferences": {},
  "source": "// SPDX-License-Identifier: MIT\r\n\r\n/** \r\n    Cardano going to #1\r\n    Github: https://github.com/lgmnemesis\r\n    Email: lgm@nemesis.co.il\r\n*/\r\n\r\npragma solidity ^0.7.3;\r\n\r\ncontract ChainPrediction {\r\n    address public oracle;\r\n    bool public pollEnded;\r\n    enum Chains {Cardano, Ethereum, Polkadot, Algorand, Avalanche, Holochain}\r\n    uint256[] public winners;\r\n    uint256 numOfChains = 6;\r\n    uint256 public losersBets;\r\n\r\n    mapping(uint256 => uint256) public bets;\r\n    mapping(address => mapping(uint256 => uint256)) public betsPerVoter;\r\n    mapping(uint256 => uint256) public votesPerChain;\r\n    mapping(address => bool) public isVoted;\r\n\r\n    constructor(address _oracle) {\r\n        oracle = _oracle;\r\n    }\r\n\r\n    function placePrediction(Chains _chain) external payable {\r\n        require(pollEnded == false, \"Poll Ended\");\r\n        uint256 _chainInt = uint256(_chain);\r\n        require(isVoted[msg.sender] == false, \"Already cast your vote\");\r\n        isVoted[msg.sender] = true;\r\n        bets[_chainInt] += msg.value;\r\n        betsPerVoter[msg.sender][_chainInt] += msg.value;\r\n        votesPerChain[_chainInt]++;\r\n    }\r\n\r\n    function withdrawGain() external {\r\n        require(pollEnded == true, \"Poll is still running\");\r\n        uint256 voterBets = _getVoterWinningBets();\r\n        require(voterBets > 0, \"You did not win the bet\");\r\n        uint256 winnersBets = _getWinningBets();\r\n        uint256 _losersBets = _getLosersBets();\r\n        uint256 gain = voterBets + ((_losersBets * voterBets) / winnersBets);\r\n        _resetBetsPerVoter();\r\n        msg.sender.transfer(gain);\r\n    }\r\n\r\n    function reportResults() external {\r\n        require(oracle == msg.sender, \"Not an oracle\");\r\n        require(pollEnded == false, \"Poll Ended\");\r\n        _andTheWinnersAre();\r\n        pollEnded = true;\r\n    }\r\n\r\n    function _getWinningBets() internal view returns (uint256) {\r\n        uint256 winningBets = 0;\r\n        for (uint256 i = 0; i < winners.length; i++) {\r\n            winningBets += bets[winners[i]];\r\n        }\r\n        return winningBets;\r\n    }\r\n\r\n    function _getVoterWinningBets() internal view returns (uint256) {\r\n        uint256 winningBets = 0;\r\n        for (uint256 i = 0; i < winners.length; i++) {\r\n            winningBets += betsPerVoter[msg.sender][winners[i]];\r\n        }\r\n        return winningBets;\r\n    }\r\n\r\n    function _andTheWinnersAre() internal {\r\n        uint256 votes = 0;\r\n        uint256 winnerIndex;\r\n        for (uint256 i = 0; i < numOfChains; i++) {\r\n            if (votesPerChain[i] > votes) {\r\n                votes = votesPerChain[i];\r\n                winnerIndex = i;\r\n            } else if (votesPerChain[i] == votes && votes > 0) {\r\n                winners.push(i);\r\n            }\r\n        }\r\n        winners.push(winnerIndex);\r\n    }\r\n\r\n    function _resetBetsPerVoter() internal {\r\n        for (uint256 i = 0; i < numOfChains; i++) {\r\n            betsPerVoter[msg.sender][i] = 0;\r\n        }\r\n    }\r\n\r\n    function _getLosersBets() internal returns (uint256) {\r\n        if (losersBets > 0) {\r\n            return losersBets;\r\n        }\r\n        uint256 _losersBets = 0;\r\n        bool itsAWinner = false;\r\n        for (uint256 i = 0; i < numOfChains; i++) {\r\n            for (uint256 _winner = 0; _winner < winners.length; _winner++) {\r\n                if (i == winners[_winner]) {\r\n                    itsAWinner = true;\r\n                    break;\r\n                }\r\n            }\r\n            if (itsAWinner == false) {\r\n                _losersBets += bets[i];\r\n            }\r\n            itsAWinner = false;\r\n        }\r\n        losersBets = _losersBets;\r\n        return _losersBets;\r\n    }\r\n\r\n    fallback() external payable {}\r\n\r\n    receive() external payable {}\r\n}\r\n",
  "sourcePath": "C:/Lgm local/chain-prediction/contracts/ChainPrediction.sol",
  "compiler": {
    "name": "solc",
    "version": "0.7.3+commit.9bfce1f6.Emscripten.clang"
  },
  "schemaVersion": "3.3.2",
  "updatedAt": "2020-12-22T16:08:49.611Z",
  "networkType": "ethereum",
  "devdoc": {
    "kind": "dev",
    "methods": {},
    "version": 1
  },
  "userdoc": {
    "kind": "user",
    "methods": {},
    "version": 1
  }
}